:101000000000042021EA000049EA00004BEA000049
:101010004DEA00004FEA000051EA00000000000025
:1010200000000000000000000000000053EA000083
:1010300055EA00000000000057EA000059EA0000ED
:1010400075BB000065A600005BEA00005BEA0000DB
:101050005BEA00005BEA00005BEA00005BEA00007C
:101060005BEA00005BEA00005BEA00005BEA00006C
:101070005BEA0000594400005BEA00005BEA000004
:101080005BEA00005BEA00005BEA00005BEA00004C
:101090005BEA00005BEA00005BEA00005BEA00003C
:1010A0005BEA00005BEA00005BEA00005BEA00002C
:1010B0005BEA00005BEA00000000000000000000A6
:1010C0005BEA00005BEA00005BEA00005BEA00000C
:1010D000193700005BEA00005BEA000079CA0000F3
:1010E0005BEA00005BEA00005BEA00000000000031
:1010F000000000005BEA0000000000005BEA000066
:1011000000000000000000000000000000000000DF
:1011100000000000000000000000000000000000CF
:1011200000000000000000000000000000000000BF
:1011300000000000000000000000000000000000AF
:10114000000000000000000000000000000000009F
:10115000000000000000000000000000000000008F
:10116000000000000000000000000000000000007F
:10117000000000000000000000000000000000006F
:10118000000000000000000000000000000000005F
:10119000000000000000000000000000000000004F
:1011A000000000000000000000000000000000003F
:1011B000000000000000000000000000000000002F
:1011C000000000000000000000000000000000001F
:1011D000000000000000000000000000000000000F
:1011E00000000000000000000000000000000000FF
:1011F00000000000000000000000000000000000EF
:1012000010B5054C237833B9044B13B10448AFF340
:1012100000800123237010BDD800002000000000D2
:10122000A416010008B5034B1BB103490348AFF3F3
:10123000008008BD00000000DC000020A4160100B2
:10124000A3F5803A704700BF174B002B08BF134B24
:101250009D46FFF7F5FF00218B460F461348144AC1
:10126000121A0EF0BFF90E4B002B00D098470D4B11
:10127000002B00D098470020002104000D000D48ED
:10128000002802D00C48AFF300800EF051F9200086
:10129000290000F013F80EF037F900BF0000080035
:1012A000000000000000000000000420D800002022
:1012B00018550020000000000000000070B5054631
:1012C0000E463146284602F0E1FF03F01BFB0446C0
:1012D00000F018F803F004F818B1204603F016FBEC
:1012E000EFE7204603F0CAFB204602F0FFFFF1E7DC
:1012F00010B50C4603F0E4FA204610BD00F0F7B834
:1013000000F0ECB810B5044603F0BCFA20460249E0
:10131000BDE8104000F046B8F112000070B5044678
:10132000154600F08DF904F68213C4F87859C4F814
:101330007C3904F58C504FF4006304F58C55A4F807
:10134000803904F67C110C35043006F0FAF9284691
:1013500006F058FA04F58D520023138041F2A412CE
:10136000A118881DA0504FF400728A8041F2AC325F
:10137000094EA35441F2B032A018A6504360074A68
:101380002346284606F045FA201D0549224605F069
:10139000D5FC204670BD00BFB5140000C915000083
:1013A000D513000008B50A4601460348FFF7B6FF0B
:1013B000BDE8084000F0CAB9F8000020D0F87C2948
:1013C00000F682139A4204D100F59D50103003F0CC
:1013D000B9BB7047FFF7F2BF2DE9F04100F58D571B
:1013E0000446051D013704F58D56284605F0A6FD77
:1013F000337870B1022B4BD0D4F87C1904F68210EC
:10140000091A89B2002953D0D4F87839BDE8F041DF
:101410001847012B22D0022B3AD0002BE5D12046D1
:1014200000F09AF908B102F0F1F9204600F09EF9B7
:101430000028E1D104F58C50043006F086F900282C
:10144000DAD1284605F0C5FD01233370284605F0A2
:10145000D5FD60B9284605F0DAFD387004F58C50EA
:101460003978043006F07AF90028EFD0C4E794F810
:101470009880284605F09BFEB8F1000F06D094F83E
:1014800098301BB941F2AC330122E254022333708D
:1014900004F58C50043006F08FF90028ACD141F2ED
:1014A000AC33E218E35C3070002B9ED010709AE7EA
:1014B000BDE8F08108B500F049F9BDE80840FFF744
:1014C0008BBF00F68213C0F87C394FF40063A0F89C
:1014D000803900F59D50103003F034BB08B500F0A2
:1014E00035F918B1BDE80840FFF7EBBF08BD13B5EB
:1014F0000446019100F02AF948B1019A00F58C5098
:1015000021460C3002B0BDE8104006F087B902B0A9
:1015100010BD0000F0B50C46A1B015461E4600F007
:101520002FF92346194A1A4F802168460EF090F889
:1015300068460EF0C9F869460246002001F0C6F878
:101540000024A642A0B20ED0292C0BD0A4EB84011B
:1015500004EB44002B5D3A46803168440EF078F885
:101560000134EEE7204600EB4000C0F18001094A5B
:1015700068440EF06DF868460EF0A6F80DF1010112
:10158000421E002001F0A2F821B0F0BDCC0A0100FB
:10159000E00A0100E60A010041F2A412F8B58358FE
:1015A0008718BE1D9B1B05469BB2144641B91A46BF
:1015B000314600F0E5FE4FF400732E51BB80F8BDBC
:1015C0003246FFF7A7FFF6E7FFF7E6BF00207047B8
:1015D000006870471C282ED8DFE800F0300F111388
:1015E0002D1517192D2D2D2D1B1D1F212D2D2D27AF
:1015F0002D2D2D25232D2D292B00012070470E2068
:1016000070470B2070470C2070470920704703205B
:101610007047022070470420704711207047122045
:10162000704713207047142070471620704717200A
:1016300070471820704700F58040704700207047C1
:10164000F8B50646044646F8041B4FF4006200F164
:10165000D101304605F065FB0025266504F15403F1
:1016600004F17402C3E9005508339A42FAD1C4E97F
:101670001E55A4F8745004F1800005F0D7FD2E4AE1
:1016800084F89850042184F8C810C8232B49C4F862
:101690009C50C4E928232A4B0968C4F8CC10C4E93B
:1016A0002B35002200234FF6FF7704F51761C4E9BC
:1016B0002E23C4E93023A4F8A870C4F8B45084F8E9
:1016C000D050A4F8D258A4F84C5984F84F59A4F833
:1016D000505984F85259C4F85859C4F85C59C4F8A0
:1016E0006059C4F8645984F86859C4F86C59C1E960
:1016F0000023144B14491C602246304605F021FBA0
:101700007822002104F6D4000DF06CFF772200212E
:1017100004F1B80084F8535984F8555984F8547981
:1017200084F84E5984F8D15801F0E6FB04F1AC007E
:1017300003F008FA2046F8BD00F8FF0794100100F6
:10174000051B0000B01400206B1B0000014B186843
:10175000704700BFB014002090F8C830042B1ABFA7
:1017600090F8980080F001000020704790F8C83091
:10177000012B06BF90F8980080F001000020704710
:10178000D0F858390133C0F8583970472DE9F8437B
:10179000994690F850390D1E0446164608BF70252C
:1017A00013B10D20BDE8F88300F1B807294638468B
:1017B00001F020FC0028F4D194F8D22894F8D33812
:1017C0009A420AD00B220021384601F095FB04F121
:1017D000AC0003F0B7F90320E4E704F150082B460E
:1017E00006228021404605F028FF48B9206D1FFAE7
:1017F00089F2314605F0B1FC10B9404605F000FF12
:101800000328CFD1DEE70000013804289ABF024B3D
:10181000185C0020704700BFE90A01002DE9F84379
:1018200011F00F0601F00F0709D1022A04D11A4660
:101830003146B83001F060FB3046BDE8F88390F8DF
:10184000D35890F8D288A5EB08040E2C06DD0E22A2
:101850000021B83001F050FB0326EDE7C1F3011C75
:101860006146441894F8D148B4421CD045451AD971
:1018700044460E2C02D90F3CE4B2FAE704F58D740D
:1018800000EBC40494F804E01EF0400F11D00EF0F9
:10189000030949450DD1CEF38309B14509D16FF351
:1018A000861E84F804E029460E2907D90F39C9B2EB
:1018B000FAE708F101085FFA88F8D7E701F58D71BA
:1018C00000EBC1014CF0400402F0030244EA87043B
:1018D00044EA02248A8822F45F7222F0030214434D
:1018E0008A688C8063F3170201358A60002680F8CD
:1018F000D358A1E713460222FFF790BF38B511F085
:10190000300F00F1500408BFC0F89C20154600239A
:101910000622204605F091FE48B92946204605F0EA
:10192000D4FD20B92046BDE8384005F069BE38BD79
:101930002DE9F74304460D466846114691461E467A
:1019400000F0F8FEDDE900782FB918F0010F02D1A0
:10195000E6B932461BE004F150064B460622294602
:10196000304605F06AFEC8B94FEA680318F0010F67
:1019700018BFE35804EB680018BFDF59B84768B9CF
:10198000304603B0BDE8F04305F03ABE0D222946CB
:10199000204603B0BDE8F043FFF7B0BF03B0BDE899
:1019A000F08370B50446002694F8D25894F8D338E2
:1019B000AB423ED005F58D7504EBC502137959068F
:1019C00016D404EBC5052B796FF386132B7194F8AD
:1019D000D2380133DBB20F2B84F8D238E4D194F83B
:1019E000D33884F8D2680E2B20D90F3BDBB2FAE74C
:1019F000C3F30100C3F383015379926841EA0011F4
:101A000003F0030361F07F01022BC9B2C2F3170296
:101A100005D12046FFF772FF0028D2D070BDB3FA7F
:101A200083F35B092046FFF783FFF5E784F8D3389B
:101A3000BAE70020F2E700002DE9F74FD0E92E23A6
:101A4000134304464BD0B83001F053FA2C4F804674
:101A500000254FF0010AEBB2434540D2D4E92E30C5
:101A6000C5F12001A5F12002EB4000FA01F10B4382
:101A700020FA02F2134313F0010FC5F12009A5F17A
:101A8000200602D10C370135E5E73A686ABBD7F882
:101A900004B0BBF1770F06D1206801F09DFE082845
:101AA00098BF00F1700B5A4680212046FFF726FFB1
:101AB000A8B9D4E92E120AFA06F62AFA09F90AFA9E
:101AC00005F321EA030346EA0906009322EA060326
:101AD0000193DDE90023C4E92E231343D2D101236E
:101AE00084F8683903B0BDE8F08F94F86839002BAA
:101AF000DFD0012380212046FFF71AFFD8E700BF7F
:101B00005C0E0100014B1868FFF796BFB01400206F
:101B100090F8983010B5044633B1D0F8CC308B42F1
:101B200004BF002380F898302046FFF73AFFD8B969
:101B300094F8D01099B101230C222046FFF7F8FE4B
:101B400090B994F8C83084F8D000042B07D0201D39
:101B500005F0F2F90123C4F8CC0084F8983020464F
:101B6000BDE81040FFF768BF10BDFFF7D1BFF8B563
:101B700000F1500504462846069EBDF81C7005F08D
:101B80005CFD50B9206D3A46314605F0E6FA20B9C1
:101B90002846BDE8F84005F033BDF8BD2DE9F04F0B
:101BA000042B87B004460E46904612D0052B19D060
:101BB00000252F46A94605F0010BE7B9BBF1000F40
:101BC00019D10D2231462046FFF794FE07B0BDE83B
:101BD000F08F114604A800F0C5FD4FF00709DDE9BC
:101BE0000475E8E7114604A800F0C8FD4FF00809A5
:101BF000DDE90475DFE704F1800A504605F0F5FBE6
:101C00000DF10A0203A9504605F0CFFB504605F03E
:101C1000F3FB002384F8503904EB65006B10BBF133
:101C2000000F01D0E358DF59B847012384F8503939
:101C3000054618B1FFF7CEFC0246C3E7BDF80A30EF
:101C40000193039B00934A46434631462046FFF7E3
:101C50008EFF0028BAD02A46B4E708B50022FFF765
:101C600049FE08BD37B50223B0F888208DF807304B
:101C7000B0F886309A42044624D1206802F04AFE29
:101C800094F8522922440023FF2182F84E3982F829
:101C9000533982F8541982F8553904F15000C4F8C8
:101CA0005839C4F85C39C4F86039C4F8643905F0AF
:101CB000F4FC702280212046FFF720FE05462846CE
:101CC00003B030BD0DF10701803005F0C7FA9DF873
:101CD0000730022B0546D0D0206802F019FE024BD7
:101CE00000221A60EBE700BFB014002010B50446D4
:101CF000006802F018FE0146206DBDE8104005F0B6
:101D000019BA10B50446006802F097FE0146206D2E
:101D1000BDE8104005F00EBA37B50023054601A90D
:101D20008030019305F01CFB0446A0B99DF8041017
:101D3000286802F084FE044668B9286802F0F3FDC2
:101D400048B195F852392B4493F84E391BB12868A5
:101D500002F010FE0446204603B030BD10B5044624
:101D6000006802F0EBFD002818BF0221206D08BFBB
:101D70000021BDE8104005F0DDB913B5002304468D
:101D80000DF1070180308DF8073005F067FA58B97A
:101D90009DF8073023B1013B012B07D9072003E051
:101DA0000146206802F0D0FD02B010BD0121F8E725
:101DB00013B504460DF10701803005F05FFA20B934
:101DC0009DF80710206802F04BFE02B010BD10B560
:101DD000044654F8500B02F035FE01462046BDE89B
:101DE000104005F016BB13B504460DF10601803016
:101DF00005F062FA20B9BDF80610206802F024FE52
:101E000002B010BD10B50446006802F020FE0822A2
:101E10000146206DBDE8104005F09FB913B50822BA
:101E2000044601A9803005F0B2FA18B9019920687A
:101E300002F00FFE02B010BD10B5044654F8500B6E
:101E400002F00AFE01462046BDE8104005F0E1BA66
:101E500090F852390344006D93F84E1905F06AB9B1
:101E600037B5002305460DF1070180308DF80730A6
:101E700005F004FA044688B9286802F054FD30B130
:101E80009DF80730286863B102F074FD044695F8A8
:101E900052099DF80730054485F84E39204603B0B5
:101EA00030BD02F05DFDF1E72DE9FF4100F1800753
:101EB000064602A9384605F02BFA20BB01A9384690
:101EC00005F00EFAF8B90DF10301384605F0C6F930
:101ED000C8B9306802F0D4F807468846DDE9020147
:101EE000884508BF874211D2C41B61EB0805002D4D
:101EF00008BFB4F1FF3F09D2019B9DF80310306881
:101F0000224602F04EF904B0BDE8F0810720FAE75E
:101F100010B50446006802F003F90146206DBDE8E3
:101F2000104005F007B910B50446006802F0FEF84D
:101F30000146206DBDE8104005F0FCB8F8B5054637
:101F40000E460024012707FA04F33342E1B204D11C
:101F50000134202CF7D1002004E0286D05F0EAF8C8
:101F60000028F5D0F8BD0023F7B505460C460B60F8
:101F700000F180070126B5F88620B5F888309A422E
:101F80000FD00DF10701384605F068F950B99DF8FA
:101F900007301F2B08D8226806FA03F31343236087
:101FA000E9E7002003B0F0BD0720FBE7D0F8A01060
:101FB000FFF7C4BF13B5002301A904460193FFF73F
:101FC000D2FF10B9019BC4F8A03002B010BDB0F828
:101FD000A410503005F01DBA00F1A401803005F0C6
:101FE0006BB910B50446006802F09DFC014640B193
:101FF00094F85239234493F9543901330CBF00212A
:102000000221206DBDE8104005F094B837B50023DB
:1020100005460DF1070180308DF8073005F01EF9F7
:10202000044620BB9DF807300BB3022B22D1286851
:1020300002F079FCD8B195F85209284490F9543946
:10204000013319D1D5F8A030C3B15A1E1A4015D1A9
:102050005B08D1B2144602F10102F9D180F854496B
:10206000074BB5F8A420286802F08FFC04462046F0
:1020700003B030BD0C24FAE70D24F8E70724F6E797
:10208000A12A000013B5044601A9803005F068F9C3
:1020900028B90199012204F1B80000F063FF02B0F1
:1020A00010BD13B5044601A9803005F059F928B9CF
:1020B0000246019904F1B80000F054FF02B010BDCF
:1020C000D0F89C10503005F000BA10B500F1500463
:1020D0000421204605F0F9F928B920460321BDE87E
:1020E000104005F0F2B910BD0321503005F0EDB9F4
:1020F0000021503005F0E9B910B500F15004052178
:10210000204605F0E2F9F8B90C21204605F0DDF98A
:10211000D0B91821204605F0D8F9A8B922212046C7
:1021200005F0D3F980B940F20121204605F0CDF940
:1021300050B94021204605F0C8F928B92046412170
:10214000BDE8104005F0C1B910BD10B5044602F05D
:10215000E3FB014604F15000BDE8104005F0F2B980
:10216000006D012104F0E6BF006D002104F0E2BF24
:10217000006D042104F0DEBF0C20704713B5044647
:102180006946006802F06AFC206D0822694604F086
:10219000E4FF02B010BD0221503005F06CBA90F897
:1021A000C810006D04F0C6BF73B504460E468030FB
:1021B0000DF1070105F052F880BB9DF80730022BA6
:1021C00023D002D9DA1E012A21D884F8C83000238E
:1021D00084F8D0300C22012331462046FFF7A8FBBB
:1021E00094F8C830042B054608D090B9201D04F09F
:1021F000A3FEC4F8CC00012384F8983015B184F80C
:10220000D0600025284602B070BD0123DDE703231E
:10221000DBE7074B1B68C4F8CC30ECE7FFF7DAF9D3
:10222000314602462046FFF769FB0546EAE700BF54
:10223000941001000C2A10B51C4603D0712A06D058
:10224000002010BDFFF7B0FF20700120F9E700F07B
:10225000B3FDF9E7F0B585B004460D4602A8114676
:10226000002716468DF8077000F070FADDE902309D
:1022700000F0010273B96AB90DF10703324629462D
:102280002046FFF7D7FFF8B90D2229462046FFF771
:1022900031FB17E0411084F8507904EB60000AB17B
:1022A0006258D358984701228DF8070084F85029C6
:1022B00018B1FFF78FF90246E7E733462946204673
:1022C000FFF7ACFA8DF807009DF8070005B0F0BDE8
:1022D00073B5002304460D46803001A916460193CC
:1022E00005F03EF8024640B1FFF774F92946024670
:1022F0002046FFF7FFFA024604E0032E15D004D86B
:10230000022E0CD0104602B070BD331F012BF9D83D
:10231000019A334629462046FFF740FCEBE7019B34
:1023200029462046FFF77AFAE5E7019A2946204632
:10233000FFF790FFDFE737B504460D46803001A96F
:1023400005F00EF880B9019A012A0FD008D9931E22
:10235000032B10D9052229462046FFF7CBFA03E0CC
:1023600029462046FFF779FC03B030BD29462046B8
:10237000FFF778FCF8E729462046FFF7A9FFF3E7C7
:1023800030B5012385B080F85039044600258030EF
:1023900001908DF80F5004F056FF0423019884F843
:1023A000C83084F898500DF10F0104F057FF98B928
:1023B0009DF90F309DF80F10AB420DDAD4F85C395F
:1023C0000133C4F85C39C1F3011384F8523943B1C5
:1023D00006222046FFF792FA002384F8503905B010
:1023E00030BD2368002BF3D02046FFF7A4FF38B19F
:1023F0009DF80F10FFF7EEF802462046FFF77AFA35
:1024000094F8D32894F8D2389A4202D02046FFF7A5
:10241000C8FA94F852299DF80F30224403F00F03B4
:1024200092F8D11831B199421EBFD4F86019013128
:10243000C4F860190F2B14BF0133012382F8D1387F
:10244000CAE710B50446006801F058FBC1B2206D20
:10245000BDE8104004F06EBE10B50446006801F0FF
:10246000EBFDC1B2206DBDE8104004F063BE00007A
:1024700010B50446006802F0E0FA0146B0B10A283F
:102480000CD84FF4FA60414301F55C2101F5346149
:1024900004F15000BDE8104004F0CABF192807D865
:1024A000044841F2883303FB0101F1E70249EFE7F9
:1024B0000021EDE7B0DB2300CC3F0D0013B504464F
:1024C0000DF10701006801F091FB30B99DF807108C
:1024D000206D04F02FFE02B010BDFFF77BF801461F
:1024E00004F1500005F0C7F8F5E713B500230446E2
:1024F0000DF1070180308DF8073004F0D1FE20B9CE
:102500009DF90710206801F085FB02B010BD13B5DE
:1025100004460DF10701006801F05EFB30B99DF83B
:102520000710206D04F006FE02B010BDFFF752F850
:10253000014604F1500005F09EF8F5E713B50023BD
:1025400004460DF1070180308DF8073004F0A8FE35
:1025500020B99DF90710206801F03CFE02B010BDC3
:1025600013B504460DF10701006801F071FB30B9A5
:102570009DF80710206D04F0DDFD02B010BDFFF7DF
:1025800029F8014604F1500005F075F8F5E713B598
:10259000002304460DF1070180308DF8073004F068
:1025A0007FFE20B99DF90710206801F05BFB02B0A7
:1025B00010BD37B500F1800504460DF1060128462F
:1025C00004F04CFE60B90DF10701284604F068FEE6
:1025D00030B99DF907209DF80610206801F00CFE27
:1025E00003B030BD13B504460DF1060154F8500B8D
:1025F00001F01AFE30B9BDF80610204604F009FFBC
:1026000002B010BDFEF7E6FF0146204605F033F8A4
:10261000F6E713B504460DF10601803004F04CFED8
:1026200020B9BDF80610206801F00AFE02B010BD06
:10263000FFF79ABDFEE710B5044602F01BFAFFF75C
:10264000E3F80146206DBDE8104004F073BDF7B516
:10265000002300220546CDE9002300F07EFF6946F5
:10266000044605F1800004F053FE70B9DDE900670F
:1026700023460024A74208BF9E4208D3F21A67EB04
:102680000403C5F87029C5F8743903B0F0BD0720FC
:10269000FBE700F51763D3E90023503004F0E3BEF5
:1026A00010B50446006803F0B5FA01462046BDE8BF
:1026B0001040FFF743BC10B50446006803F0AEFAC3
:1026C00001462046BDE81040FFF738BC1346074AD4
:1026D00010B4146834B10A46014620465DF8044B34
:1026E000FFF754B80D205DF8044B7047B01400207C
:1026F000F0B5013A044600260C2096420AD2B518DD
:102700006D0800FB05F7CF599F4201D26E1CF4E71C
:102710002A46F2E700FB06F288188A589A420BBF55
:10272000D0E901010023C4E90001C4E900332046D7
:10273000F0BD000010B50B46044603492A22FFF7FE
:10274000D7FF204610BD00BFF00A010010B50B46B0
:10275000044603491922FFF7CBFF204610BD00BFF6
:10276000E80C010010B50B46044603490322FFF7AD
:10277000BFFF204610BD00BF140E010010B50B4670
:10278000044603490322FFF7B3FF204610BD00BFF4
:10279000380E01000B21503004F097BE0421503058
:1027A00004F093BEF8B50646174600F150050C46F6
:1027B00049B142B98A880968284604F0B1FE002868
:1027C00075D00120F8BD0021284604F022FE002823
:1027D000F7D1002C6BD12146306DC9B204F0AAFCB0
:1027E0000028EED1306D802104F0A4FC0028E8D14F
:1027F000002C5FD0E37D13F0010F0CBF00211021EE
:102800009B0701D541F02001284604F002FE002874
:10281000D7D1284604F0B0FE01460028D1D104B13A
:10282000A179306D04F086FC01460028C9D104B1BD
:10283000A17D306D04F07EFC0028C2D1002C3BD07D
:10284000D4E90223284604F00EFE0028B9D1284618
:1028500004F0B1FE0028B4D1284604F08DFE002813
:10286000AFD13946284604F030FE0028A9D12846C9
:1028700004F0A1FE0028A4D1284604F07DFE014604
:1028800000289ED104B1217D306D04F053FC002856
:1028900097D1A4B12169284604F0CAFD002890D13F
:1028A000284604F088FE003818BF01208AE794F912
:1028B000151091E72146A7E700220023C2E7214631
:1028C000E9E70901F8B561F07F0100F1500704461E
:1028D00015461E460622712301F0F001384604F029
:1028E000ACFE50B9324629462046FFF75BFF20B9BF
:1028F0003846BDE8F84004F083BEF8BD37B5019214
:10290000074A15680C4601462846FEF75FFE019B04
:1029100001462246284603B0BDE83040FFF7D1BF4C
:10292000B01400202DE9F34715464218044692F8EA
:1029300053099DF828701E4600283CD040EA01113A
:1029400061F07F01C9B26BB31B6893F800A0CAF3B2
:10295000001A95F81C90002304F1500882F85339AE
:102960004046062209F0010904F067FE18BB38460C
:10297000FEF730FE0146404604F0A7FDD8B9206DB1
:10298000514604F0D7FBB0B9206D494604F0D2FBA4
:1029900088B94FB12B681B781B070FD4404604F051
:1029A0002FFE08E09A46D4E73A4631462046FFF724
:1029B000F9FE0028EED002B0BDE8F087B9F1000FB3
:1029C000ECD00DF10301284602F0F2FB0028F2D111
:1029D00001A9284602F0C6FB0028ECD19DF803109F
:1029E000206D04F0A7FB0028E5D10199404604F0D2
:1029F0001FFD0028D2D0DEE7F7B51E46084B1F6842
:102A00000C46014638461546FEF7E0FD00960146A5
:102A10002B4622463846FFF785FF03B0F0BD00BFC6
:102A2000B01400202DE9F04143180C46174624014C
:102A3000FF2293F9548983F85429054664F07F04F2
:102A4000FEF7C6FD05F15006E4B201F093FF39230D
:102A500006222146304604F0F0FDF8B9286D5FFAF1
:102A600088F104F067FBC8B9286DF9B204F062FB85
:102A7000A0B9304604F0C4FD80B9214630230622B7
:102A8000304604F0DAFD014640B9286D04F052FBEF
:102A900020B93046BDE8F04104F0B2BDBDE8F08198
:102AA00013B5074B01911C6801462046FEF78EFDC9
:102AB000019A0146204602B0BDE81040FFF7B2BFC0
:102AC000B014002010B5044654F8500B01F05AFF22
:102AD00001462046BDE8104004F0F7BC90F852399A
:102AE0000344006D93F8551904F024BB10B5044657
:102AF00054F8500B01F09FFF02460B462046BDE8FC
:102B0000104004F0B0BC10B590F8521901F6551100
:102B100004460144803004F0B1FB48B994F85239BE
:102B200020682344BDE8104093F8551901F030BFE8
:102B300010BD73B50446006801F05AFF0546B8B9E8
:102B400004F18006B4F88830B4F886209B1A9BB252
:102B5000012B0DD90DF10601304604F0ADFB30B963
:102B6000BDF80610206801F01FFF0028EAD00546D6
:102B7000284602B070BD73B50446006801F044FFFA
:102B80000546B0B904F18006B4F88830B4F8862060
:102B90009B1A9BB2072B0CD9082201A9304604F0DE
:102BA000F6FB28B90199206801F008FF0028EBD056
:102BB0000546284602B070BD13B504460DF1060166
:102BC000803004F079FB20B9BDF80610206801F0D0
:102BD000FDFE02B010BD13B50822044601A98030E5
:102BE00004F0D5FB18B90199206801F0F9FE02B094
:102BF00010BD13B504460DF10601803004F05CFBF6
:102C000020B9BDF80610206801F0CEFE02B010BD5C
:102C100013B500230446082201A98030019304F073
:102C2000B6FB18B90199206801F0C8FE02B010BDCA
:102C300013B500230DF10701044680308DF80730ED
:102C400004F01CFB014630B99DF8073020682BB911
:102C500001F066FE0146084602B010BD0049F7E7E4
:102C6000FD28000013B504460DF10601803004F084
:102C700023FB20B9BDF80610206801F059FE02B010
:102C800010BD13B504460DF10601803004F014FBAD
:102C900020B9BDF80610206801F04DFE02B010BD4D
:102CA000F0B500F1800585B00C460DF10A0203A9CC
:102CB000284604F085FB0646002877D1BDF80A2097
:102CC0007F2A76D82646039956F8060BA2800CF088
:102CD00061FC3146284604F0C1FA0646002865D159
:102CE000A379A37640F6047323837F23E376237FBF
:102CF00023F0170343F00403C4E90400237704F12D
:102D00001801284604F0AAFA00284FD104F119014D
:102D1000284604F0A3FA002848D10DF10601284600
:102D200004F0ACFA002841D1237F9DF8062062F31D
:102D30008203237702A9284604F0A0FAB0BB237FC0
:102D40009DF8082062F3000323770DF10701284660
:102D500004F094FA50BB237F9DF8072062F34103EF
:102D600023770DF10901284604F088FAF0B9237F92
:102D70009DF8092062F30413237704F11401284617
:102D800004F0AEFA90B904F11001284604F0A8FA54
:102D900060B904F11A01284604F060FA074628B920
:102DA00004F11B01284604F07BFA3E46304605B08C
:102DB000F0BD0626FAE7000038B5044600680D4667
:102DC00001F0B1FDB8B1206801F0D7FD0146E8B1CE
:102DD0002046FFF765FF034670B90D49206801F0F2
:102DE000CEFD034640B9C5F301131C4405F00F05A1
:102DF00084F8535938BD0D231846FEF7EBFB2946DE
:102E000002462046BDE83840FEF778BD0323F3E7CD
:102E1000F929000030B500F1800487B0054602A909
:102E2000204604F01BFA20B99DF80830082B02D088
:102E3000072007B030BD0DF10901204604F00EFA5D
:102E40000028F6D10DF10A0203A9204604F0B8FAD1
:102E50000028EED1BDF80A30102BE9D10DF10A029D
:102E600004A9204604F0ACFA0028E2D1BDF80A30EB
:102E7000102BDDD10DF10A0205A9204604F0A0FABD
:102E80000028D6D1BDF80A30102BD1D1059B019373
:102E9000049B00939DF80920039B9DF80810286867
:102EA00001F0BEFDC5E737B500F1800504460023FB
:102EB00001A928468DF8033004F012FAA0B9B4F83D
:102EC0008620B4F888309A4207D19DF803302068F4
:102ED00001995BB901F0A7FD06E00DF10301284659
:102EE00004F0CCF90028F0D003B030BD01F09FFD14
:102EF000FAE71F207047000030B5194C0023256801
:102F00008D4225D16568954222D1D0E90225C3F1D1
:102F1000200405FA04F4A3F12001DA40224325FA43
:102F200001F10A4312F0010FC3F12004A3F12002C2
:102F30000DD1012101FA02F221FA04F4224301FA2F
:102F400003F3D0E900140B432243C0E9003230BD43
:102F50000133DBB21F2B04F10C04D0D1F7E700BF23
:102F60005C0E01002DE9F04F0023214C93461F46D3
:102F7000012694F814C05D1CBCF1000F26D0E26855
:102F80008A4223D11F3BC5F1200E26FA0EFE06FA17
:102F900003F343EA0E0306FA05FAD0E902796FEA71
:102FA0000A086FEA030EBBF1000F18D04AEA0707C0
:102FB00043EA0903C0E90273D0E9003703EA0803D2
:102FC00007EA0E07C0E9003731B967461E2D2B46C8
:102FD00004F10C04CDD14FB10020BDE8F08F08EA18
:102FE00007070EEA0903C0E90273EDE70720F4E7DB
:102FF0005C0E010030B5104B00220132D2B21F2A04
:1030000003F10C0301D1002015E01C7A002CF4D050
:103010001C688C42F1D1D0E90235C2F12004A2F142
:10302000200123FA02F005FA04F4204325FA01F105
:10303000084300F0010030BD5C0E010000F14020AB
:1030400000F50030002382B0036003680193019B08
:1030500002B0704708B5094B020103EB0010084BA2
:103060004168C3F84813C168C3F808130089FFF723
:10307000E5FF044B0021995408BD00BFD00F0100AB
:1030800000400240C8140020224B37B519460120E9
:10309000D3E84F2FD2B28DF807209DF8072062B1F8
:1030A000BFF32F8F1C4B1A681C4B12B91A68D2073A
:1030B0002DD518680230400827E0C3E8420F002AE7
:1030C000E6D1174B0222C3F80823BFF35F8F03F545
:1030D0008273124A1B684BB1136801331360BFF34C
:1030E0005F8F4FF48270FFF7A9FF012310680C4C2B
:1030F000022501304008C4F80453BFF35F8F002459
:103100000C7013B113680133136003B030BD18683D
:10311000D1E700BFB514002004410240B8140020DC
:10312000004002402DE9F04106460C46FFF7ACFF97
:103130000546BFF35F8FDFF82080D8F80475BFF332
:103140005F8FFFF7A1FF3060854218BFD8F8047584
:103150002760BDE8F08100BF004002402DE9F84340
:103160004C4CDFF840E1DDE9083C04EB02188946ED
:103170009842D8F80C10D8F80480CEF808134FEA1B
:103180000215CEF844839E4672D9A0EB0308B8F12D
:10319000000F6DDA00334CF1FF3CC84618EB000815
:1031A0004FF000034FF0000949F1000913EB080646
:1031B0004CEB090732B94FF47A7303FB07F1A6FB16
:1031C00003670F44344B4FEA563848EAC748A8FB18
:1031D0000389790B03FB01994FEA18704FEA1978BC
:1031E00040EA091043F609534FEA482C4CEAD05CF8
:1031F0004FEA402EA0FB030103FB0811B6EB0008C9
:1032000067EB0106254840F2314101FB08F100FB64
:103210000616A8FB0078B0444FF0FF36BE1947F6FB
:10322000FF7048EB00004FEAD03818EB0E084FF063
:10323000000141EB0C0C28F07F4640F2FF10A8FB88
:10324000038903FB0C9918EB000049EB0101D2B193
:10325000400A40EAC150490A114B124A2B44C3E9C3
:103260000201635903F5A87342F82360BDE8F883AF
:10327000704592D2AEEB000EBEF1000F8DDA003336
:103280004CF1010C89E74FF4FA2200230BF0C0FF48
:10329000E2E700BFD00F0100D07B63087B2DE8BDC3
:1032A000C81400200040024073B5064601A96846D4
:1032B000FFF738FF019843F6095140F2FF1200234F
:1032C000E1FB0023540A44EAC3545D0A009A084B08
:1032D000E3FB024546B9204629464FF47A720023A3
:1032E0000BF096FF04460D462046294602B070BDFD
:1032F0000080841EF8B51A4D05EB00130446060144
:1033000018890F46FFF79AFE2046FFF7CDFF0246C9
:103310000B463FB913493144D1E902018B4208BF42
:1033200082421CD33544104B6A68C3F84823022CF0
:10333000EA68C3F808230AD0032C0CD0094A0123F9
:1033400093550A4A1370BDE8F84000F0DCBFBDE8B1
:10335000F84005F09BBABDE8F84004F0A1BDF8BD07
:10336000D00F0100C814002000400240B414002017
:103370002DE9FF410746884602A803A91646FFF734
:10338000D1FE039843F6095140F2FF120023E1FBFE
:103390000023540A44EAC3545D0A029A294BE3FB12
:1033A000024546B9204629464FF47A7200230BF0B5
:1033B0002FFF04460D463246CDE9004541463846CA
:1033C000FFF7CCFE204B039AD3F804359A4203D082
:1033D00003A902A8FFF7A6FE039B43F60950991C18
:1033E00040F2FF120023E0FB0123540A44EAC354D5
:1033F0005D0A029A134BE3FB024546B92046294673
:103400004FF47A7200230BF003FF04460D460F4A77
:1034100002EB0612D2E902239D4208BF94424FEA12
:10342000061107D301213046FFF764FF40BF04B007
:10343000BDE8F081064B0B44DA68034BC3F8042364
:10344000F5E700BF0080841E00400240C814002041
:10345000D00F010038B52A48402200210CF0C2F8F4
:10346000284B00201860284B1870284B002400259A
:10347000C3E9004508F0BCF908F0F8F90028FBD0D2
:10348000234BC02283F824231022C3F884215A60DE
:10349000204A0023C2F808354FF48270FFF7CEFDB2
:1034A0000223C2F844334FF4A070C2F80433FFF78C
:1034B000C5FD4FF48033C2F848334FF4A270C2F810
:1034C0000833FFF7BBFD4FF40033C2F848334FF425
:1034D000A470C2F80833FFF7B1FD4FF48023C2F89F
:1034E00048334FF4A670C2F80833FFF7A7FD4FF436
:1034F0000023C2F84833C2F808330123136038BDF3
:10350000C8140020B8140020B5140020C0140020F6
:1035100000E100E0004002402DE9F04100260B4FA1
:103520000446B0460A4D87F800802B7C1BB120462C
:103530002E7401F0EFFB2B781BB120462E7001F0AA
:10354000B5FB3B78002BEDD1BDE8F081B414002031
:10355000C81400200120FFF7A7BE08B5FFF7FAFF47
:103560004FF47A7200230BF053FE08BD0846114653
:103570000022FFF7FDBE0020FFF76CBD08B5FFF786
:10358000E9FF08BD084611460122FFF7F1BE012000
:10359000FFF760BD70477047044B4FF48022C3F8BB
:1035A0000823BFF34F8FBFF36F8F70470040024077
:1035B000024B4FF48022C3F80423704700400240BE
:1035C000FFF7DCBF1F2070470222FFF7D1BE0220A9
:1035D000FFF740BD2DE9FF48154F164E40F2FF148E
:1035E000002502A903A8FFF79DFD029A43F609539F
:1035F00020462946E3FB0201400A039B40EAC150F2
:10360000490AE7FB03018C4683460322CDE900BC4F
:103610003E215846FFF7A2FD4FF40023C6F80433BD
:10362000D6F80435029A9A42DBD104B0BDE8F0889E
:103630000080841E0040024037B5044603200D463A
:10364000FFF732FE0322CDE9000129462046FFF7AD
:1036500085FD034B4FF40022C3F8042303B030BDB3
:10366000004002400320FFF7F5BC000008B5224BE4
:1036700001221A604FF4A070FFF7E0FC1F4A4FF4DC
:103680008033C2F848334FF4A270C2F80833FFF712
:10369000D5FC4FF40033C2F848334FF4A470C2F89D
:1036A0000833FFF7CBFC4FF48023C2F848334FF4C4
:1036B000A670C2F80833FFF7C1FC4FF40023C2F82C
:1036C0004833C2F808330223C2F808334FF482703B
:1036D000C2F84833FFF7B2FCFFF7C4FF084B1022D3
:1036E000C3F88420C3F88421002283F82423BDE892
:1036F000084008F0A7B800BF044002400040024064
:1037000000E100E0004870474C410240014B986BDB
:10371000704700BFC8140020114B1B6870B52BB157
:10372000104B0222C3F80823FFF7AEFC0E4D0D4EDE
:103730000024D6F80423EB681A420AD02B8903F13F
:10374000402303F500331B681BB10021E0B2FFF7F3
:10375000D1FD0134042C05F11005EAD170BD00BF84
:103760000441024000400240D00F0100FFF7F2BECA
:1037700028207047704770474FF08043044AD3F8C1
:10378000001411604FF0FF32C3F80024704700BFEF
:10379000081500207047000008B500F068FF0A4BCC
:1037A000187018B1094B04221A6008BDBFF34F8F7F
:1037B0000749084BCA6802F4E0621343CB60BFF3C9
:1037C0004F8F00BFFDE700BF944B0020081500207D
:1037D00000ED00E00400FA050B4B1B68D9070BD481
:1037E0009A070BD459070BD41A070BD413F4F81FFC
:1037F00014BF062000207047012070470820704742
:103800000220704703207047081500207047000011
:10381000012303FA00F0084A82B0C04352E8003F97
:103820000193019B03400193019B42E80031002971
:10383000F4D102B0704700BF88150020074A82B05B
:1038400052E8003F0193019B23F001030193019B88
:1038500042E800310029F3D102B0704788150020FA
:103860000123094A82B003FA00F052E8003F0193B5
:10387000019B03430193019B42E800310029F4D1ED
:1038800002B000F040BD00BF88150020F4230B708B
:10389000CE234B7036238B704FF0805382B01A6E5C
:1038A0005B6EC1F80330CA7102B0704707B501A85A
:1038B000ADF8041004F07EFB03B05DF804FB0000DB
:1038C00010B40748CB1D1C7800F8014B8B4203F164
:1038D000FF33F8D15DF8044B084604F06DBB00BF20
:1038E0005815002007B501A8ADF8041004F066FBD8
:1038F00003B05DF804FB0000154B012210B51A70EF
:10390000144B7F221A70144B144A1A60144ADA605E
:10391000144A00231370144A2824184604FB03F1A8
:103920000133102B8850F9D1104A00237F21013335
:10393000102B02F8011BFAD128220D4800210BF0B0
:1039400051FE0C4B0022BDE810401A6004F045BB4C
:103950005115002050150020301800206918002053
:1039600058180020A0150020A81500206815002078
:10397000101500209C15002008B504F073FB04F01E
:1039800051FB024B00221A6008BD00BF88150020C1
:1039900008B50C4B1B7883B904F058FB04280ED0F3
:1039A00004D8022814BF0220012008BD0638C0B286
:1039B000022834BF03200220F7E70020F5E70320A8
:1039C000F3E700BF51150020024B187880F001008A
:1039D000704700BF51150020034B1A7812B1002028
:1039E000187070470D2070475115002010B5084C15
:1039F00022784AB9FFF7CCFF012803D0054B1B689A
:103A0000DB0703D501232370002010BD0D20FCE748
:103A1000511500208815002008B504F026FB28B9B0
:103A200000F001FEFFF70AFF002008BDFFF706FFC8
:103A30000020FFF715FFF7E70B68F7B58A8803F852
:103A4000012C07460C4604F001FB022801D100F0CE
:103A5000E9FD204600F0C6FC90B1204600F0C7FC0E
:103A600070B1237F9B070BD4204B2046197800F0C0
:103A7000DCFC1F4B196820464A1C1A6000F0D7FC7A
:103A80006669A079D6B1256800903346681E226920
:103A9000012104F004FB0028064612BF00250D2575
:103AA0000126FFF7CBFE2146384602F098F816B9FA
:103AB0000220FFF7D5FE284603B0F0BD04F060FAFF
:103AC000257F15F0040509D0207E04F029FB20682D
:103AD0000138354604F026FB0126E2E72068294636
:103AE000013804F0D0FA0646DBE700BF601500207D
:103AF00064150020004870473018002008B5064BB8
:103B00004FF4206043F00103984704F0D8FABDE871
:103B1000084004F0D6BA00BF10100100FB20704727
:103B200004F0E0BA084604F0DFBA084604F0DEBA52
:103B300007B5ADF8041001A8002104F0D9FA002857
:103B40000CBF0320002003B05DF804FB08B5084655
:103B5000012104F0CDFA00280CBF0320002008BD8D
:103B600007B5ADF8041001A8002104F0CAFA002836
:103B70000CBF0A20002003B05DF804FB08B508461E
:103B8000012104F0BEFA00280CBF0A20002008BD65
:103B9000002004F0B9BA012004F0B6BA4FF47A73E9
:103BA00010B55A430A4C0B4B226008461970FFF7B8
:103BB00045FE04F0E5F9206804F07BFA20B1052009
:103BC000FFF726FE002010BD0520FFF749FEF9E7AC
:103BD000541500205315002010B50C4621B104F0F7
:103BE000E2F92070002010BD0720FCE713B50C4659
:103BF00061B101A804F092FA054A9DF805301278E7
:103C00005E3B9B1A2370002002B010BD0720FBE72B
:103C10006115002013B50D4B1B78194448B210F103
:103C20005E0F10DB0024ADF805408DF807408DF8DD
:103C3000044004F0C9F98DF8050001A804F067FA02
:103C4000204602B010BD0720FBE700BF6115002031
:103C500021B1034B1B780B70002070470720704781
:103C600061150020F7B50B4C054601A80E4694F9E6
:103C7000007004F053FA9DF80530217826705E3B01
:103C8000591A49B22846FFF7C5FF00B1277003B0A3
:103C9000F0BD00BF61150020F8B50026404D044678
:103CA00037462B684BB120460022294601F090FF91
:103CB00028682F60013804F000FA0136102E05F153
:103CC0002805EED1374D2B689F0714D5364E0120BD
:103CD000FFF79EFD32683549002A20464FF0000369
:103CE00018BF324601F082FF306820B1013804F07D
:103CF000E4F9002333602B685E0708D50220FFF744
:103D000087FD2A490F230022204601F06FFF2B6810
:103D1000180708D50320FFF77BFD24490E23002256
:103D2000204601F063FF2B68D90608D50420FFF771
:103D30006FFD1F4B00211A78204601F049FF2B68C8
:103D40005A0608D50620FFF763FD1A4B204693F963
:103D5000001001F057FF2C6814F0010408D004F0A3
:103D600084F90446A0B900F05EFC2046FFF750FD40
:103D70002B689B0611D5104B187804F001F90F4BF6
:103D8000186804F096F928B9BDE8F84000F0BBBA0D
:103D90000124EDE70520FFF73BFD002CF4D1F8BD31
:103DA000A8150020881500201015002030180020CC
:103DB000A015002052150020531500205415002096
:103DC0002DE9F74F2E4D934604468A469846002724
:103DD0002822A94602FB07F35959002946D1EE18BB
:103DE0002822304601930BF0FDFB019B621CEA5038
:103DF0002378B38086F815A086F816B004F0CFF8C3
:103E0000B0716278DFF888A012F0200235D1282541
:103E100005FB079505F11007EB7D62F30003FB71CD
:103E20004FF0000922784046494604F0D0F8C5E931
:103E3000020163788AF8009013F0200F114C0ED025
:103E4000304600F0C5FA50B1FB79227862F34103A5
:103E5000FB710D4B1B682B610C4B1B782B750023E2
:103E6000237003B0BDE8F04F00F04DBA0137102FBA
:103E7000B0D1002301341C60FFDE9AF80020C6E7B1
:103E8000A81500203E150020381500203C15002004
:103E90003D150020431E092B09D8DFE803F0051665
:103EA000191C1C1C1C051C1C0D4B12221A700D4ADF
:103EB000002313700C4A0828137001D005280DD177
:103EC000074A00201370FFF7CBBC054B1122EDE72A
:103ED000034B1622EAE7024B0122E7E70420F2E750
:103EE000A01500203D1500203E15002070B5437838
:103EF000274A284DC3F3001100261B078AB0044649
:103F000011702E702FD52422314601A80BF06AFBC8
:103F1000631C009368462378ADF8043000F078FA0B
:103F20000446684600F063FAE8B1E4B11A4B1B7826
:103F30009C421AD1194A1368591C1160184A13601F
:103F4000184B194A029314702146012268462A70C0
:103F500000F06BFA124B6846196800F068FA1349D2
:103F6000684600F033FA0AB070BD5A1E944207D179
:103F70000F4A1368591C1160094A13600D4BE0E7A2
:103F800001339C42EFD1064B1E600B4BD9E700BFBB
:103F90003D1500203E15002060150020641500200E
:103FA00038150020401500203C1500205815002031
:103FB0009C1500208C150020781500202DE9F0417B
:103FC00006980E4C17461E460D4629B92160BDE8DD
:103FD000F0410120FFF744BC8846002118F8012B6E
:103FE00003F0F5FFC4E90201C4F800802B78A38038
:103FF0006775A67503F0D3FFA071E8E710150020E0
:10400000013906290AD8DFE801F00407070407048C
:1040100004000220FFF724BC0320FBE770470000E8
:1040200008B503F0CDFF034B1870BDE8084006202B
:10403000FFF716BC521500206FF0630070470000B8
:1040400010B50A4C204600F0CDF970B1204600F0C2
:10405000CEF950B1237FDB0607D4054BA360204681
:104060000449BDE8104000F0B1B910BD301800207F
:1040700040150020581500207047704700F0FCBC28
:10408000FFF774BBF8B50020DDE9066517461C464E
:1040900007F072FB0C4B1F7094E80F000B4F0C4C99
:1040A00087E80F0096E80F0084E80F0095E80F00FE
:1040B000084C84E80F00084B1A68084B00201A606F
:1040C000BDE8F84007F05ABB601500208C150020B1
:1040D0004015002078150020641500209C15002054
:1040E00010B500200C4607F047FB034B00201C6076
:1040F000BDE8104007F042BB6415002010B5002059
:104100000C4607F039FB054B1A68A24238BF1C6009
:104110000020BDE8104007F031BB00BF641500204F
:1041200008B5FFF725FBC0F3470008BD1420704712
:10413000A0F10B030F2B9DBF024BC01810F90B0C05
:104140007F2070476815002008B5FFF7F1FF074B87
:1041500093F900307F2B04D09842A8BF184640B294
:1041600008BD7F2808BF0020FAE700BF50150020D7
:1041700010B508460C4603F003FF03F067FF022862
:1041800001D100F04FFA2046FFF7DEFF03F009FFF0
:1041900003F073FFFFF752FB00280CBF0D20002037
:1041A00010BD37B508460C4615460193FFF7CCFF06
:1041B00003F0F7FE019A23464FF47A71A5F57A7061
:1041C00003F075FFFFF73AFB80F00100C0B203B0C7
:1041D00030BD000010B50C4603F0E1FE7F2C07D087
:1041E000044B1C70FFF7B0FF03F0DBFE002010BD96
:1041F0000720FCE750150020A1F10B030F2B10B591
:104200000C460DD8074B0B4403F80B2C03F0C7FEEC
:10421000A04203D1FFF798FF03F0C3FE002000E0A7
:10422000072010BD6815002021B1034B1B880B80AF
:1042300000207047072070472818002070470000B2
:1042400008B5034B08461980FFF7F8FF002008BDAA
:104250002818002010B50C4C00F0E3F900F05EF8CF
:10426000FFF78AFBFFF796FA22780AB9FFF783FA7D
:10427000207800F0F6F900F077F9FFF7F7F9BDE8DC
:10428000104000F0D3B900BF944B002010B5124C81
:1042900023780BB1FFF7DEFF104B0122C3F8402556
:1042A00007F08EFA00F0C0F9FFF7D4F800F008F933
:1042B00023780BB9FFF75EFA207800F0CDF9FFF70D
:1042C0005BFAFFF719FB00F01FF800F0A9F9FFF700
:1042D00051FA0023237010BD944B002000E00140F0
:1042E000014B1878704700BF944B002010B504466E
:1042F000FFF7D2FC00F0B9F900F016F82046BDE84F
:104300001040FFF709B97047034B00221A60A3F26F
:10431000045301221A60704704C50040014B01227A
:104320005A60704700C000401F4B2DE9F7431F4CF7
:10433000D3F8002125688AB10022C3F80021D3F800
:1043400000210192019AD3F80825D3F80835920587
:1043500044BF6FEA83536FEA93532360FFF7FAF881
:10436000134B1A680FF23809D9E90089861A5A687E
:1043700061EB0207B94508BFB0453FBF0A4A0126B5
:104380001660C3E900012368AB4204D003B0BDE866
:10439000F04303F00DBE03B0BDE8F083AFF300803F
:1043A00080C3C9010000000000C00040F0180020D8
:1043B000E818002070477047034B18680028B8BF02
:1043C000033040F387007047F018002000F09FBFD3
:1043D00003685878000200F44050A0F5005358429A
:1043E0005841704703681878C0F3C000704707B59C
:1043F0000DF1070100F0A6FE40B99DF80700A0F1FD
:1044000008035842584103B05DF804FB0020FAE766
:1044100007B500230DF107018DF8073000F0C8FE45
:104420009DF8070003B05DF804FB00F0D5BE00F076
:10443000A9BE0000064B00221A6082B01B680193DF
:10444000019B044B0122C3F804231A6002B0704799
:1044500000D1004000D00040144B1A6813B51AB3C5
:10446000134AD2F80813C9071ED5002119601B682A
:104470000193019BD2F808450E4B0F4A196810684A
:10448000091A7F2906D81968481C186001F07F01B5
:104490000A4844541B6812689B1A7F2B81BF044A48
:1044A0000123C2F80833536002B010BD00D10040B0
:1044B00000D000407C19002078190020F41800205A
:1044C00070B58022234D244C244800210BF08AF83B
:1044D000234900232B602360C02381F80D334FF460
:1044E0000053C1F880310B601E49D1F8040540F03B
:1044F0000100C1F80405D1F8000220F00100C1F864
:104500000002FFF797FF2B46224611681868091A28
:104510000329FAD911681868091A032917D90F4D08
:1045200004240020166819688E421DBF19684E1CAD
:1045300001F07F0100211CBF695C1E600002013C8C
:1045400040EA0100EED1BDE870400BF053B8002006
:10455000F9E700BF781900207C190020F41800202A
:1045600000E100E000D00040074A0123C2F8083310
:104570005360064B4FF40052C3F88020C3F88021EB
:10458000002283F80D23704700D0004000E100E0D6
:104590002DE9F0471E4E01233370002836D0002944
:1045A00034D0DFF874801B4F0025C146D8F8004096
:1045B0003B68E41AE4B24B1B9C42C8BFDCB2F4B1C6
:1045C000DFF858E000EB050C0022D9F800A03B68AA
:1045D0009A451EBF3B6803F1010A03F07F0302F115
:1045E00001021ABF1EF80330C7F800A0002394424E
:1045F0000CF8013BE9D8FFF71DFF2C44A5B28D4212
:10460000D4D3002000233370BDE8F0870720F9E7FA
:1046100074190020781900207C190020F41800205B
:10462000704770477047704700F002B800F00EB84E
:1046300008B50121002007F071F80028A2BF024B45
:1046400001221A7008BD00BF80190020014B002212
:104650001A7070478019002008B900F0B5B800F052
:10466000E5B808B900F0CAB8704700F0E7B8012013
:10467000704700000838062814D8DFE800F0060D5F
:1046800010131313040008F06FBD074B00221A84A7
:10469000064B01221A757047044B0022FAE7034BC0
:1046A00001225A75704700BF841900200C1C00209D
:1046B000FFF729BE07B50B4801AA01210AF098F9B6
:1046C00068B9019840B1FEF748FF074B1B69C01A53
:1046D0000A2894BF0020012003B05DF804FB0020ED
:1046E000FAE700BF181001000C1C0020012910B5CA
:1046F00014D0022907D081B90A4C012323760AF08D
:1047000040F9A06009E0084908484FF400720AF037
:104710003DF9FEF722FF034B186110BD014BD9751F
:10472000FBE700BF0C1C00200C1A00201810010031
:1047300010B5134C237B0BB1237DDBB2627B03F0FE
:1047400001039A4206D063737BB107F0A7FE08B954
:1047500008F008FD637D8BB10023637507F09EFEB2
:1047600060B1BDE8104008F001BD07F0A1FE10B136
:1047700008F00CFDEEE708F0F7FCEBE710BD00BF1A
:104780000C1C002038B50E4C236825466BB1FFF792
:1047900091FF50B1A28821680A480AF0D1F818B9EF
:1047A0000123A3752060A08038BDEB7D002BFBD0DA
:1047B0000023EB75AB75BDE83840FCF7A1BD00BF29
:1047C0000C1C00201810010008B51C22002108480C
:1047D0000AF008FF09F042FB064808F0FFFB09F069
:1047E00071FB054808F0DCFCBDE8084008F0A2BCFD
:1047F0000C1C00203C1001001810010008B507F047
:1048000057FE58B108F0C2FC08F096FF0028FBD113
:1048100008F052FDBDE8084008F054BC07F03EFE29
:104820000028F5D008F0A0FCF2E70000024B0022BF
:104830009A751A609A8070470C1C002038B508F0F1
:104840007BFF05460028FAD10B4CFFF771FF237E52
:1048500073B1A16821B1094889B2FCF74FFDA56089
:10486000064907484FF400720AF090F800B9207624
:10487000BDE83840FFF786BF0C1C00200C1A002052
:1048800018100100024B01221A730020704700BF6C
:104890000C1C002010B5094CA37D0BB1E37D1BB1AE
:1048A000FFF770FF002010BD08F046FF0028FBD185
:1048B000FFF73EFFFFF766FFEEE700BF0C1C00208E
:1048C00070B50E4CA37D06460D460BB1FFF7E2FF17
:1048D000236873B9FFF7EEFE10B92660A58070BD9E
:1048E00007482A4631460AF02BF8012318B9A37568
:1048F000F5E70520F3E71846F1E700BF0C1C0020A0
:104900001810010000F02CBA0120704700F045BAE1
:1049100000F036BA00F036BA00487047481001007F
:10492000143000F06BBA8069003818BF012070475E
:10493000143000F08FBA143000F096BA0148FFF737
:10494000EFB800BF301C002008B5836923B10348CD
:10495000FFF7E8F8002008BD0D20FCE7301C002020
:10496000836913B10248FFF757B80D20704700BFA5
:10497000301C0020143000F081BAC06B7047143036
:1049800000F092BA243000F0B5BD143000F0A6BAA1
:1049900008B5836923B10348FFF7C7F8002008BDB5
:1049A0000D20FCE7301C0020836913B10248FFF79B
:1049B000BFB80D20704700BF301C0020836913B1C1
:1049C000113001F0E3B80D2070470000836913B186
:1049D0000248FFF7C5B80D20704700BF301C00200B
:1049E000836913B1113001F0DFB80D20704700006A
:1049F00008B5836923B10348FFF7CAF8002008BD52
:104A00000D20FCE7301C002008B5836923B1034862
:104A1000FFF7C1F8002008BD0D20FCE7301C002086
:104A2000143000F077BA0022143000F0ACBA012242
:104A3000143000F0A8BAFEF799BE007D704714301C
:104A400000F0F7B9C08A7047143000F0E5B92E3095
:104A50007047143000F0F4B9408D7047FEF716BF70
:104A600008B5836923B1243000F06AFD002008BD39
:104A70000D20FCE70120704700F044B810B5044653
:104A8000FFF742FF20B1201DBDE8104000F064B8E0
:104A900010BD7047024A1388013B1380704700BF66
:104AA000281C002031B16FF00043994208BF01215A
:104AB000016070470121FBE737B5094C23880546A3
:104AC00043B904210DEB0100FFF762FD0199054890
:104AD000FFF7E8FF238828460133238003B030BD69
:104AE000281C00202C1C0020026848F24E33A2FB38
:104AF000032313EB520244BF22F000420132026052
:104B0000104670470148FFF7EFBF00BF2C1C002084
:104B100010B50446FFF7F6FF091BB0FBF1F303FBEA
:104B20001100204410BD0000036823B9016004484F
:104B30004960FFF7AEBF5A684A605960016070472C
:104B4000301C00204368014613B90248FFF7ECBF50
:104B5000704700BF341C002038B50025046805608C
:104B600054B1606884421CBF436863600368456059
:104B700008BF00249847F3E738BD4368496810B57B
:104B80009C1A8A1AD20FB2EBD47F08BF5B1A4FEA85
:104B9000D47008BFD80F10BD70B505680C4625B994
:104BA000BDE870404B68084818478B6898476A68AA
:104BB000831A002B01462368B8BF121ABDE8704063
:104BC0000148A8BF00221847301C002038B50C4609
:104BD0001146A2689442034606D00568AC4204D14F
:104BE0000260FFF7D9FFA46038BD2A460021002AE1
:104BF000F9D0944208D011469268F8E78B68002BF0
:104C0000F1D09B688B60EEE70029F7D1002DEAD048
:104C1000AA681A60E7E72DE9F047936805460C4655
:104C2000164698473246814621462846FFF7CEFF72
:104C3000D5F800A04FF00008574647B14A4639461C
:104C40002046FFF79AFF10B9B846BF68F5E7B8F1FC
:104C5000000F08D1C4F808A031462C602846BDE8F2
:104C6000F047FFF799BFD8F80830A360C8F80840AC
:104C7000BDE8F08770B5066804460D467EB18B68C6
:104C800098477368C01A002809DB20462A46314637
:104C9000FFF79CFF33683046BDE87040184729464F
:104CA0002046BDE87040FFF777BF000010B504460E
:104CB000FFF72AFE30B104F108000349BDE81040B7
:104CC000FFF7D8BF10BD00BF881001004160024A45
:104CD00001460248FFF79FBF7C1001003C1C0020EA
:104CE0001144FFF7F3BF13B504460191FEF746FCEC
:104CF000019A0146204602B0BDE81040FFF7F0BF20
:104D00000146024A0248FFF761BF00BF7C10010064
:104D10003C1C002010B50446FFF7F6FD30B104F14D
:104D20000C000349BDE81040FFF7A4BF10BD00BF51
:104D30007C10010038B500250446C0E90155C56066
:104D40001030FFF7B9FE214604F1140000F043F8DB
:104D500084F89050FFF7D6FEC4F89400204638BD82
:104D600010B5064C94F890302BB92046FFF7E2FFBF
:104D7000012384F89030014810BD00BF301C002092
:104D8000FEF70ABD10B50446113000F0AFFE04F185
:104D90001400BDE8104000F012B890F8903010B543
:104DA00004465BB1002380F89030243000F0EEFB25
:104DB00004F11000BDE81040FFF76CBE10BD0023E9
:104DC000C0E9023343600B2303704FF6FF73438047
:104DD000103000F02FBB10B50B2303704FF6FF739C
:104DE00043800023C0E901330446C360103000F063
:104DF0004DFB2046FFF7E3FF204610BD38B50446C3
:104E00000D46103019B100F0A9FB10B138BD00F00B
:104E1000BDFB65600020F9E738B5436804460D46E0
:104E20002BB1103000F06AFB6580002038BD0D20EA
:104E3000FCE7436813B10170002070470D207047F4
:104E400008B5436823B1103000F06EFB002008BDA8
:104E50000D20FCE708B5436823B1103000F054FB87
:104E6000002008BD0D20FCE708B5436823B11030D1
:104E700000F050FB002008BD0D20FCE743681BB18B
:104E800010F8101B00F096BB0D20704710B444685A
:104E90002CB122B9234603485DF8044B18475DF84E
:104EA000044B7047301C002038B5436804460D465B
:104EB0002BB1103000F000FD00B9A56038BD0D2009
:104EC000FCE7000038B5856804461DB10248A847D4
:104ED0000023A36038BD00BF301C002038B51D463C
:104EE000436804462BB1103000F0C6FB00B9E56002
:104EF00038BD0D20FCE70000436810B504462BB117
:104F0000C3681BB1024898470023E36010BD00BF8F
:104F1000301C00202DE9F0438FB004460D461646A4
:104F20000021102202A806AF99460DF128080AF0C8
:104F300059FB1022002138460AF054FB10220021B0
:104F400040460AF04FFB6368DBB10022494602A8E5
:104F500000F057FA16990022384600F052FA1799D5
:104F60000022404600F04DFA04F11000CDE900782F
:104F700002AB3246294600F007FC00200FB0BDE826
:104F8000F0830D20FAE708B5436823B1103000F034
:104F900071FD002008BD0D20FCE703685878000271
:104FA00000F44050A0F50053584258417047036840
:104FB0001878C0F3C000704700F44053B3F5005FA9
:104FC0001ED120F44E5323F03F0348F24002934297
:104FD0001CD00CD8B3F5446F18D005D8B3B1B3F5D5
:104FE000046018BF01207047B3F50040F9E74CF6A4
:104FF000404293420AD000F44C40B0F54040F0E704
:1050000010F4406F14BF012000207047002070474B
:1050100000F44053B3F5005F04D100F44C43B3F502
:105020004C4F07D010F4404304D080F04000C0F350
:10503000801070470020704700F01800102804D03E
:10504000182814BF0020082070470420704700F083
:105050000700013806280BD8DFE800F00406080A2C
:10506000040608000420704708207047102070478D
:1050700000207047420708B5034608D0FFF7DCFF61
:1050800013F0180F0CBF05300630C0B208BDFF206A
:10509000FCE710B580F480720446C2F30021FFF7EC
:1050A0008BFF50B98A1CC4F38123022B07D0032B3A
:1050B00016D033B1FF22104610BD0A1DF3E70232AD
:1050C000D2B22046FFF7A4FF08B10232D2B2A40B3D
:1050D000022C07D0032C08D0002C18BFFF22EAE7CF
:1050E0000832EDE70232D2B2E5E70832FBE7838807
:1050F000032B06D9036858781B7843EA0020FFF792
:10510000C8BFFF2070478388022B10B5044607D91B
:10511000FFF74DFF20B12046BDE81040FFF7E7BF85
:10512000FF2010BD38B505460C46FFF7ECFFFF2801
:105130001FBF2B681B5C03F00703237014BF002004
:10514000062038BD38B505460C46FFF7DCFFFF28C2
:105150001FBF2B681B5C03F01803237014BF0020D3
:10516000062038BD38B505460C46FFF7CCFFFF28B2
:105170001FBF431C2A68DBB200201ABFD35823602C
:10518000062038BD38B50C460546FFF7BCFF2A6837
:10519000431CD9B252FA83F35454220A5A70220C97
:1051A000240E9A70DC702B7F43F001032B7738BDFF
:1051B00038B505460C46FFF7A6FFFF28024609D082
:1051C0002B68185CFFF738FF1344034400205B7919
:1051D000237038BD0620FCE738B505460C46FFF7BE
:1051E00092FF2B680246185CFFF726FF1344034426
:1051F0005C7138BD10B50446FFF785FFFF2806D067
:105200002368185CFFF723FF0230C0B210BD0220F4
:10521000FCE738B50546FFF76AFFFF28044611D0C2
:105220002846FFF7C4FE68B1A9888C420CDA2B68C7
:10523000185DFFF71FFFFF2808D02044C4B2A14229
:10524000B8BFFF24204638BDFF24FBE70446F9E73A
:10525000F8B50546FFF7DDFF84B2FF2C2BD02E6892
:10526000737837789B071CD52846FFF7C3FFA988BA
:10527000A21C93B210FA82F28A4206EB040C1CDCE8
:10528000325D02F07F0213449CB210FA83F399421C
:1052900013DBBCF80020C2F3C7127F2A01D0994269
:1052A000E6D107F00707032F05D12846FFF775FE63
:1052B00008B90134A4B2E0B2F8BDFF24FBE710B591
:1052C0000446FFF7C5FFFF2816BF23680020C0185B
:1052D00010BD10B50446FFF7F2FF2368C01AC0B234
:1052E00010BD38B50546FFF7F4FF04462846FFF722
:1052F00081FF0444A888001B80B238BD10B5044665
:10530000FFF778FFA388181A2368184410BDF0B57A
:10531000E5B0044600230AA80D46059300F020FEE0
:105320002046FFF744FE00284FD00DF11301204620
:10533000FFF7F8FE002848D105A92046FFF712FF25
:105340000646002841D106AF9DF8132005993B463B
:10535000284600F0F7FDA1680AA800F064FC20468A
:10536000FFF748FF05462046FFF7B3FF03902046AE
:10537000FFF7B7FF023D0D2302460399CDE9007305
:105380000AA8EBB200F05BFC2046FFF7A2FF216801
:1053900002460AA800F0F3FC2046FFF790FF0390B6
:1053A0002046FFF79EFF039A0096034611460AA87F
:1053B00000F022FD2046FFF7A1FF01460AA800F0F9
:1053C000A9FD237F43F0100323770AA800F0D8FD3E
:1053D00065B0F0BD12B1012A05D070470B680360BB
:1053E0004B684360704701F10803013813F8012D41
:1053F00000F8012F8B42F9D17047102200210AF0EA
:10540000F1B830B50B46024601F11005186859682D
:10541000144603C40833AB422246F7D130BD1023F3
:1054200008608B807047000001460148FEF7A0BE6F
:10543000301C002038B54FF6FE73C3800381438AC9
:1054400003F0FE0343F4FE43002543F0010304464A
:10545000438245800571C0F80A50C0F80E5045617E
:1054600080F85D502830FFF7C8FF04F13800FFF7DF
:10547000C4FF04F14800FFF7C0FFA56584F85C5045
:1054800004F16000BDE83840FFF73ABC37B5174D6E
:10549000019104462846FEF741FB20802846FEF78E
:1054A00029FB0199A06104F11C0000F0F9FA002128
:1054B000C4E90811102204F128000AF093F8102220
:1054C000002104F138000AF08DF80021102204F1C7
:1054D00048000AF087F82346054A43F8602F204623
:1054E000A366FFF7A7FF204603B030BD301C0020A5
:1054F000695A0000008840F0F40070470148FEF748
:10550000D5B900BF301C0020C180014800F038BB75
:10551000411C002002898A4203D00181014800F029
:1055200078BB7047301C00200A68C0F80A204A681F
:10553000C0F80E20014800F0CBBA00BF411C00208B
:10554000837C61F3000383740388DB0502D5024882
:1055500000F068BB704700BF301C0020837810B596
:1055600004460BB1002010BD0748FEF735FA0028AD
:10557000F9D10548FEF750FA0028F4D1A378012BA1
:10558000F0D00123A370EEE7301C002010B50446D4
:105590006030FFF7B5FB0648FEF73EFA30B9044825
:1055A000FEF724FA10B9A37803B1A07010BD00BFB4
:1055B000301C002010B504460846FFF735FF20B91F
:1055C000A378022B1CBF0223A37010BD38B50123A2
:1055D000044603FA01F10020FFF79AFA4FF4A07392
:1055E00003FB00F5A37CDB070AD5A3699879FFF7D5
:1055F0001BFF294604F16000BDE83840FFF773BB8C
:105600000148FEF709FAF4E7301C0020837803F024
:10561000FB03032B10B504461CD10388DB0603D41F
:1056200083699879FFF700FFA378A1690A48042BE2
:105630001CBF0423A37000F0C5FA0D280AD1A1698C
:105640004B693BB10023BDE81040C1E90433024877
:1056500000F0B8BA10BD00BF411C0020034610B4D2
:105660001C6A08462CB15A6A012123465DF8044B96
:1056700018475DF8044B7047837810B504467BB13A
:10568000033B042B0CD903889B070BD50648FEF778
:1056900085FAA378052B01D00523A370002000E034
:1056A0000D2010BD0C20FCE7301C00208378022B5D
:1056B0001CBF022383701C3000F002BA10B50446F0
:1056C0001048FEF71BFA7F2806D094F913307F2B81
:1056D00001D0834200DAE074FDF73FFF6369C01A2E
:1056E000002807DA616E04F160008022BDE81040F6
:1056F000FFF7F6BA94F913102046BDE81040FFF703
:10570000D5BF00BF301C0020008880F02000C0F30F
:1057100040107047008880F00400C0F3800070479C
:10572000008880F04000C0F38010704738B583696E
:1057300082785969044609B91969D1B1072A1CBF91
:105740000722A2702046FFF7EBFFB0B10D481D699C
:10575000FEF796FCA3695B692B44A3F5A473C21AF8
:10576000002A0ADA191A04F16000BDE83840FFF790
:10577000BABA032A01D0032383702046BDE838401B
:10578000FFF744BF301C00202DE9FF470829DDE961
:105790000C780546894692461C4612D180F85C205A
:1057A00000F128060FCB86E80F0097E80F0005F1FF
:1057B000380686E80F0098E80F0005F1480686E8ED
:1057C0000F002846FFF7A0FF40B9CDE90180009700
:1057D0000448234652464946FEF754FC04B0BDE84F
:1057E000F08700BF301C002038B590F85C30934241
:1057F00004460D4607D11C3000F068F9A36D9D42A8
:1058000024BF0135A56538BD036A70B505460C4651
:1058100016462BB121B11AB9426A31462046984743
:105820002846FFF771FF40B93CB1E37D9B0704D5E3
:10583000227D21692846FFF7D7FF3246214605F130
:105840001C00BDE8704000F02DB91FB5044680690A
:1058500003681B781B072DD5037FD9062AD40DF1C9
:105860000F01FFF76FFC28BBA069037FDA0703D4A1
:1058700094F85C10FFF7B0FC2046FFF745FFC8B175
:105880009DF80F30082B15D1A06904F1380383600F
:10589000037FDB0709D4A16D0191FFF773FC94F836
:1058A0005C2001992046FFF79FFFA06904F10A01DF
:1058B000FFF72DFD04B010BD38B58378052B0546E4
:1058C0000BD00024FFF7C1FF2846EC702C7185F83F
:1058D0005D40FFF72BFF204638BD0D20FCE737B5B4
:1058E00005460C46FFF710FF08BB0B681B781A072C
:1058F0001DD50B7FDB071AD50DF102012046FFF7FE
:1059000021FCA0B99DF80230082B10D101A9204636
:10591000FFF728FC58B90DF103012046FFF748FCBA
:1059200028B99DF8032001992846FFF75DFF03B0D1
:1059300030BD2DE9F7431E46044660300D469046C3
:10594000FFF7DEF90E2E4AD006D8002E47D00B2ED8
:105950000DD003B0BDE8F0830F2EFAD100212B7FCC
:105960005A0704D5AA7904F11C0000F0A1F82946D1
:105970002046FFF7B4FF0023E37023798EB320465F
:10598000FFF7C8FE074620B16F7E9F4294BF0027F5
:10599000012704F11C09009732462946484600F0C9
:1059A00088F837B32379013323712B7F0E2E43F010
:1059B00002032B7717D1A37894F85D10062B1CBF38
:1059C0000623A3702046FFF701FE94F85D300133F3
:1059D000DBB2052B28BF052384F85D30B9E7012130
:1059E000BDE73746D5E7204603B0BDE8F043FFF7F3
:1059F0009DBEA378A87E022B1CBF0223A370AB79A7
:105A0000834204D0A37CDB0701D5FFF70DFD3346AD
:105A100042462946484603B0BDE8F04300F04AB884
:105A20008378033B10B50446042B1CD8DFE803F051
:105A3000030717130300BDE81040FFF7E7BD8369B4
:105A40009879FFF7F1FCA16920460E23BDE81040CC
:105A50000022FFF76EBFBDE81040FFF767BEBDE84C
:105A60001040FFF72BBE10BD0148FFF7D9BF00BFA4
:105A7000541C002008B512B1836D8B4200D28165A1
:105A8000FFF742FE48B905481AB1BDE80840FEF7E5
:105A900035BBBDE80840FEF723BB08BD301C002025
:105AA000704700000148FFF7F1B900BF441C002017
:105AB000704770470148FFF705BA00BF441C00203B
:105AC0000148FFF719BA00BF441C002070470000CE
:105AD00007B501226846FFF77DFC03486946FDF7DC
:105AE000EFFE03B05DF804FB301C002030B58BB036
:105AF00010220021054606A809F074FD00211F4868
:105B0000FEF713F81D48FEF743F81C48FEF743F86C
:105B10001A48FDF759FF28B11848FDF77DFF1748CF
:105B2000FDF764FF15484FF6FF71FDF7BFFE002437
:105B300004A92846CDE90444FFF7CAFF4FF6FE71D9
:105B40000E48FDF7CFFE06A8FFF757FC06ABCDE9E0
:105B500000332246214609480294FEF793FA214673
:105B60000648FEF7BDFA21460448FDF7DBFF03486F
:105B7000012100F057F80BB030BD00BF301C0020F1
:105B80000148FDF7AFBE00BF301C002007B5012261
:105B90006846FFF71FFC69460248FDF7D7FF03B0D0
:105BA0005DF804FB301C002007B501226846FFF7B2
:105BB00011FC69460248FDF7E1FF03B05DF804FB04
:105BC000301C00200148FDF737BF00BF301C00200B
:105BD00090F8903013B1123000F02ABA704790F864
:105BE000903013B1123000F029BA704710B490F819
:105BF000904024B15DF8044B123000F025BA5DF8F6
:105C0000044B704790F8903013B1123000F022BA74
:105C1000704770470048704700F8FF0708B5FFF766
:105C2000F9FF08BD70471FB50446084601A9FFF7F4
:105C3000F6FB01A9204600F09FF904B010BD2DE944
:105C4000F84FDDF828A090469946044613460D46C5
:105C50000022D1B201320BB11B0AFAE79DF82C6089
:105C6000022938BF02210D2E28BF0D26C6F10F03D1
:105C70009942B8BFD9B2C1F10F039E42C8BFDEB28C
:105C80000139A9F10203002DCFB24FEA630314BF1B
:105C90004022002247EAC303134384F820313246EE
:105CA000514604F2211009F075FC04F22F1142460E
:105CB0000F239E4205D2013B01F80129DBB2120AF3
:105CC000F7E704F590721146204600F057F9002DD1
:105CD00053D0B5F57F4F94F8202194F82131C5F3C6
:105CE0000720E9B229D242404B4084F8202184F8B1
:105CF00021314FF0020B3246514684F8307104F2E4
:105D0000311009F047FC06F23110C6F10F020021F4
:105D1000204409F067FC0023C4E95538C4F85C311D
:105D2000102384F86461C4F85051A4F860B1A4F859
:105D3000623184F86591BDE8F88F83F0FE0384F842
:105D4000213194F8223183EA156384F8223194F8E2
:105D50002331D24383EA154384F8202184F8233188
:105D600094F8242194F8253142404B4084F82421B2
:105D700084F825314FF0060BBDE7AB46BBE72DE9B4
:105D8000F843044615460E468F1800F590794FF0FB
:105D90000008B74218D0B4F86031102B06D14A463B
:105DA0004946204600F0EAF8A4F86081B4F8603172
:105DB0005A1C2344A4F8602116F8010B93F8202103
:105DC000504083F82001E4E7D4F85421D4F850314E
:105DD00015449D42C4F854510BD1B4F860312BB135
:105DE00004F590721146204600F0C8F80023A4F88C
:105DF0006031BDE8F88300002DE9F74FDFF810A10E
:105E000098469DF83030019304460E46174600250B
:105E1000AAEB000A00F5A07B454556D0B4F86231E4
:105E2000102B17D194F8641104F23F120AEB02030D
:105E3000994206DA13780133DBB202F80139002BFC
:105E4000F4D05A4604F59871204600F097F80023E4
:105E5000A4F86231019B43BB16F8059057B1B4F822
:105E60006221511C2244A4F8621192F8402189EA6F
:105E700002027A55B4F86021102A08D104F5907214
:105E80001146204600F07AF80022A4F86021B4F808
:105E90006021511C2244A4F8601192F8201189EA73
:105EA000010382F820310135B6E7B4F86221795D4B
:105EB000531C2244A4F8623192F8403181EA03096C
:105EC000002ED7D006F80590D4E7D4F85C311D44F5
:105ED000D4F85831C4F85C519D4215D3B4F8603100
:105EE0002BB104F590721146204600F047F894F863
:105EF000642102F231100021C2F10F02204403B0EC
:105F0000BDE8F04F09F06EBB03B0BDE8F08F00BFF5
:105F1000D0FEFFFF38B500F5A07204460D4600F52F
:105F2000987100F02BF804F59071002394F8652126
:105F30009A4206DD11F8012BC87F4240EA54013332
:105F4000F4E738BD10B504681C6044685C60080E56
:105F50001872080C5872080A9872D9721A7310BD18
:105F600010B500F1080303604FF48C73044683807E
:105F700000F00CF8204610BD00F017B800F02FB864
:105F800010B5044600F03FF8204610BD08B540B1FA
:105F90008388B3F58C7F06D3006800F03DFE0020B7
:105FA00008BD0720FCE70120FAE713B50446684660
:105FB00000F038F87CB1A388B3F58C7F0DD3BDF821
:105FC000042000992068D20000F04AF8003818BF79
:105FD000012002B010BD0720FBE70120F9E708B55A
:105FE000134660B18288B2F58C7F0AD30A460068F6
:105FF000012100F051FE003818BF012008BD072024
:10600000FCE70120FAE708B540B18388B3F58C7F3F
:1060100006D3006800F00EFE002008BD0720FCE754
:106020000120FAE70A6802608A88828070470000CF
:106030000148FFF7E9BB00BF541C00200148FFF7EF
:106040000DBB00BF541C00200148FFF772BC00BF0D
:10605000541C00200148FFF729BB00BF541C00203E
:10606000E0B1D9B1C02A08B507D0B2F5807F12D00F
:10607000802A0DD06FF01F0008BD0C23036000F1D3
:1060800008034360D208184600F07AFB002008BDE0
:106090000A230360F3E70E230360F0E76FF02000AC
:1060A000704700BF10B504461046D4E90032063BE5
:1060B0009B0000F037FA002010BD00BF10B5044669
:1060C0001046D4E90032063B9B0000F003F80020A4
:1060D00010BD00BF2DE9F14F03F11C0402EB840C4D
:1060E0004FEA930B8A68CB680868496800F046F964
:1060F0003CE9F0006040694072407B400BF1060EC5
:106100004EE083EA134480EA134582EA134746BA15
:1061100096EA3444604000F00F1684EA063420F01A
:106120000F1684EA161054BA94EA0106724002F07F
:106130000F1486EA043622F00F1486EA14124CBAC1
:106140006540694001F00F1485EA043521F00F1411
:1061500085EA14115CBA67407B4003F00F1487EAAC
:10616000043723F00F1487EA141344BA44404DBA9D
:106170004D4056BA56405FBA5F4087EA174886EAF4
:10618000174B84EA17464FEA38488BEA1B4485EAE6
:106190001B4788EA1B4580EA3440694072407B40D7
:1061A00000F0703400F0803500F00F3040EA440019
:1061B00040EAD50080EA900404F0332480EA8400A9
:1061C000604001F0703401F0803501F00F3141EA98
:1061D000440141EAD50181EA910404F0332481EAC3
:1061E0008401614002F0703402F0803502F00F3219
:1061F00042EA440242EAD50282EA920404F03324DD
:1062000082EA8402624003F0703403F0803503F0C8
:106210000F3343EA440343EAD50383EA930404F0CB
:10622000332483EA84036340C943DB4381EA0004E7
:1062300083EA044686EA020183EA014382EA33459F
:1062400083EA144383EA040484EA00077FEA040A29
:106250008AEA024A8AEA010B87EA11488AEA374A3F
:1062600080EA060181EA1A418AEA030A04EA0A007E
:10627000454088EA040707EA0B0041408AEA0B061A
:1062800008EA060084EA34428AEA3A4602EA060349
:1062900058404540414087EA37438BEA3B4003EA98
:1062A000000985EA090582EA0309464009EA06066B
:1062B000714085EA010005EA3546464006EA31416B
:1062C00081EA304181EA364606EA304686EA3546BA
:1062D00034400F4086EA010508EA050886EA3640A0
:1062E000024088EA020881EA314213405C4080EAB9
:1062F000020309EA030987EA0907674088EA0408F4
:1063000006EA0A0601EA0B018AEA0B0425408AEA3A
:106310003A44204045408BEA3B4B02EA0B02564090
:1063200084EA0B04234059406E40694087EA3640B6
:1063300080EA384080EA060380EA104481EA134587
:1063400085EA344585EA17427D4082EA354180EA94
:1063500005403CE9F0006040694072407B40BEF17E
:10636000010E3FF6CEAE00F05FF810BC2060616019
:10637000A260E360BDE8F08F00F002BA80EA10147A
:1063800004F0F01480EA0410604081EA111404F073
:10639000F01481EA0411614082EA121404F0F0144E
:1063A00082EA0412624083EA131404F0F01483EAD0
:1063B0000413634080EA102404F47F4480EA04203C
:1063C000604081EA112404F47F4481EA04216140A1
:1063D00082EA122404F47F4482EA0422624083EABF
:1063E000132404F47F4483EA0423634081EA5004C5
:1063F00004F0553480EA4400614083EA520404F01A
:10640000553482EA4402634082EA900404F0333453
:1064100080EA8400624083EA910404F0333481EA24
:1064200084016340704700BF82EA900404F0333473
:1064300080EA8400624083EA910404F0333481EA04
:106440008401634081EA500404F0553480EA44003A
:10645000614083EA520404F0553482EA4402634006
:1064600080EA102404F47F4480EA0420604081EA3A
:10647000112404F47F4481EA0421614082EA122459
:1064800004F47F4482EA0422624083EA132404F481
:106490007F4483EA0423634080EA101404F0F0147C
:1064A00080EA0410604081EA111404F0F01481EADB
:1064B0000411614082EA121404F0F01482EA04121A
:1064C000624083EA131404F0F01483EA0413634077
:1064D000704700BF2DE9F04F4FF2F00280EA103113
:1064E000114080EA0130484041088208C3084FF05B
:1064F000000EA3E000F0113001F0113102F0113272
:1065000003F0113340EA410040EA820040EAC30050
:106510004FF2F00280EA1031114080EA0130484029
:10652000BDE8F08F2DE9F14F94464FEA930B8A684E
:10653000CB6808684968FFF721FF0BF1060E33E0CE
:1065400083EA134480EA134582EA134746BA96EA7F
:106550003444604000F00F1684EA063420F00F1631
:1065600084EA161054BA94EA0106724002F00F143D
:1065700086EA043622F00F1486EA14124CBA6540FB
:10658000694001F00F1485EA043521F00F1485EA03
:1065900014115CBA67407B4003F00F1487EA04379C
:1065A00023F00F1487EA1413BCE8F0006040694040
:1065B00072407B4000F0E03400F0103500F00F3006
:1065C00040EA540040EAC50080EA900404F0332415
:1065D00080EA8400604001F0E03401F0103501F001
:1065E0000F3141EA540141EAC50181EA910404F006
:1065F000332481EA8401614002F0E03402F0103576
:1066000002F00F3242EA540242EAC50282EA9204E0
:1066100004F0332482EA8402624003F0E03403F0A1
:10662000103503F00F3343EA540343EAC50383EA0A
:10663000930404F0332483EA8403634081EA3247FD
:1066400087EA134581EA354690EA060484EA034B5B
:1066500082EA1B4280EA044484EA054483EA144A3D
:1066600085EA14448BEA044B84EA374481EA0B41FF
:1066700081EA164104EA0A00454082EA04082BEA4E
:10668000080041408AEA0B0602EA060084EA344325
:106690008AEA3A4603EA060778404540414088EADC
:1066A00038478BEA3B4007EA000985EA090583EA97
:1066B0000709464006EA0906714085EA010005EA35
:1066C0003546464006EA314181EA304181EA3646A4
:1066D00006EA304686EA3546344008EA010886EA8A
:1066E00001052A4086EA364003405A4081EA314398
:1066F0001F407C4080EA030709EA070988EA090885
:10670000544088EA020806EA0A0601EA0B018AEA0E
:106710000B0215408AEA3A42104045408BEA3B4062
:1067200003405E404240174079404D404E40E443B4
:10673000F64386EA18435D4085EA054083EA134341
:1067400086EA034183EA384284EA114383EA044338
:106750005FEA3343BEF1010E3FF6F2AE3FF5CAAE3B
:10676000BCE8F0006040694072407B40FFF75CFE8F
:1067700010BC20606160A260E360BDE8F08F00BFE4
:106780002DE9F04102F11C050646074600EB85089D
:1067900051F8040B46F8040B043AF9D14FF0010C00
:1067A000FFF798FE5FEA302080EA0C004FEA4C0CBD
:1067B0004FEA1C2140F21B1201FB02F28CEA020C90
:1067C0001ECF41404A4053405C401EC62000464513
:1067D00010D02C2DE4D03C2D06D1FFF77BFE06CF48
:1067E00041404A4006C6100006CF41404A4006C616
:1067F0001000D5E736E90F00FFF7C0FD86E80F006F
:10680000043DF7D1BDE8F08190B4ADF5016D00AF66
:106810000023C7F80C380123C7F8083826E007F52D
:106820008063D7F80C28D7F8081843F822103B46A5
:10683000D7F80828D7F80C1843F82210D7F80838EA
:106840005A00D7F8083803F08003002B01D01B232F
:1068500000E000235A40D7F808385340DBB2C7F8AD
:106860000838D7F80C380133C7F80C38D7F80C388B
:10687000FF2BD4DD0023C7F80C380123C7F80838F4
:106880001BE0D7F80828D849D7F80C3841F823205E
:10689000D7F808385A00D7F8083803F08003002BDF
:1068A00001D01B2300E000235340DBB2C7F80838B7
:1068B000D7F80C380133C7F80C38D7F80C38092B47
:1068C000DFDDCA4B63221A70C94B002283F86320B4
:1068D0000123C7F80C386DE03B46D7F80C2853F875
:1068E0002230C3F1FF0207F5806353F82230C7F866
:1068F0000838D7F80838C7F80438D7F804385A00E9
:10690000D7F80438DB111343DBB2C7F80438D7F8E3
:106910000828D7F804385340C7F80838D7F804389F
:106920005A00D7F80438DB111343DBB2C7F8043838
:10693000D7F80828D7F804385340C7F80838D7F8EC
:1069400004385A00D7F80438DB111343DBB2C7F818
:106950000438D7F80828D7F804385340C7F808385F
:10696000D7F804385A00D7F80438DB111343DBB2E8
:10697000C7F80438D7F8043883F06303D7F8082839
:106980005340C7F80838D7F80838D9B2974AD7F82B
:106990000C3813440A461A70D7F80C38D9B2944A06
:1069A000D7F8083813440A461A70D7F80C38013360
:1069B000C7F80C38D7F80C38FF2B8DDD0023C7F84B
:1069C0000C3806E1894AD7F80C3813441B78C7F80D
:1069D0000838D7F808385A00D7F8083803F0800389
:1069E000002B01D01B2300E000235340DBB2C7F88B
:1069F0000438D7F80428D7F808385340DBB2C7F872
:106A00000038D7F808381A02D7F804385A40D7F8AF
:106A100008381B045A40D7F800381B065A407549FD
:106A2000D7F80C3841F82320724AD7F80C3852F8BE
:106A300023304FEA33627049D7F80C3841F82320ED
:106A40006D4AD7F80C3852F823304FEA33626B495D
:106A5000D7F80C3841F82320684AD7F80C3852F898
:106A600023304FEA33626649D7F80C3841F82320C7
:106A70005F4AD7F80C3813441B78C7F80838D7F8A2
:106A80000838002B18D03B469A6B3B46D7F80818BD
:106A900053F821301A445B4B82FB03341319D9118C
:106AA000D317C91A0B461B025B1AD11A07F580636C
:106AB00053F82130184600E00020D7F80838002BA2
:106AC00018D03B465A6A3B46D7F8081853F821308D
:106AD0001A444C4B82FB03341319D911D317C91A2A
